{
  "_format": "hh-sol-artifact-1",
  "contractName": "nft",
  "sourceName": "contracts/nft.sol",
  "abi": [
    {
      "inputs": [],
      "stateMutability": "nonpayable",
      "type": "constructor"
    },
    {
      "anonymous": false,
      "inputs": [
        {
          "indexed": true,
          "internalType": "address",
          "name": "owner",
          "type": "address"
        },
        {
          "indexed": true,
          "internalType": "address",
          "name": "approved",
          "type": "address"
        },
        {
          "indexed": true,
          "internalType": "uint256",
          "name": "tokenId",
          "type": "uint256"
        }
      ],
      "name": "Approval",
      "type": "event"
    },
    {
      "anonymous": false,
      "inputs": [
        {
          "indexed": true,
          "internalType": "address",
          "name": "owner",
          "type": "address"
        },
        {
          "indexed": true,
          "internalType": "address",
          "name": "operator",
          "type": "address"
        },
        {
          "indexed": false,
          "internalType": "bool",
          "name": "approved",
          "type": "bool"
        }
      ],
      "name": "ApprovalForAll",
      "type": "event"
    },
    {
      "anonymous": false,
      "inputs": [
        {
          "indexed": true,
          "internalType": "address",
          "name": "from",
          "type": "address"
        },
        {
          "indexed": true,
          "internalType": "address",
          "name": "to",
          "type": "address"
        },
        {
          "indexed": true,
          "internalType": "uint256",
          "name": "tokenId",
          "type": "uint256"
        }
      ],
      "name": "Transfer",
      "type": "event"
    },
    {
      "inputs": [
        {
          "internalType": "address",
          "name": "to",
          "type": "address"
        },
        {
          "internalType": "uint256",
          "name": "tokenId",
          "type": "uint256"
        }
      ],
      "name": "approve",
      "outputs": [],
      "stateMutability": "nonpayable",
      "type": "function"
    },
    {
      "inputs": [
        {
          "internalType": "address",
          "name": "owner",
          "type": "address"
        }
      ],
      "name": "balanceOf",
      "outputs": [
        {
          "internalType": "uint256",
          "name": "",
          "type": "uint256"
        }
      ],
      "stateMutability": "view",
      "type": "function"
    },
    {
      "inputs": [],
      "name": "collectionName",
      "outputs": [
        {
          "internalType": "string",
          "name": "",
          "type": "string"
        }
      ],
      "stateMutability": "view",
      "type": "function"
    },
    {
      "inputs": [],
      "name": "collectionSymbol",
      "outputs": [
        {
          "internalType": "string",
          "name": "",
          "type": "string"
        }
      ],
      "stateMutability": "view",
      "type": "function"
    },
    {
      "inputs": [],
      "name": "createknft",
      "outputs": [
        {
          "internalType": "uint256",
          "name": "",
          "type": "uint256"
        }
      ],
      "stateMutability": "nonpayable",
      "type": "function"
    },
    {
      "inputs": [
        {
          "internalType": "uint256",
          "name": "tokenId",
          "type": "uint256"
        }
      ],
      "name": "getApproved",
      "outputs": [
        {
          "internalType": "address",
          "name": "",
          "type": "address"
        }
      ],
      "stateMutability": "view",
      "type": "function"
    },
    {
      "inputs": [
        {
          "internalType": "address",
          "name": "owner",
          "type": "address"
        },
        {
          "internalType": "address",
          "name": "operator",
          "type": "address"
        }
      ],
      "name": "isApprovedForAll",
      "outputs": [
        {
          "internalType": "bool",
          "name": "",
          "type": "bool"
        }
      ],
      "stateMutability": "view",
      "type": "function"
    },
    {
      "inputs": [],
      "name": "name",
      "outputs": [
        {
          "internalType": "string",
          "name": "",
          "type": "string"
        }
      ],
      "stateMutability": "view",
      "type": "function"
    },
    {
      "inputs": [
        {
          "internalType": "uint256",
          "name": "tokenId",
          "type": "uint256"
        }
      ],
      "name": "ownerOf",
      "outputs": [
        {
          "internalType": "address",
          "name": "",
          "type": "address"
        }
      ],
      "stateMutability": "view",
      "type": "function"
    },
    {
      "inputs": [
        {
          "internalType": "address",
          "name": "from",
          "type": "address"
        },
        {
          "internalType": "address",
          "name": "to",
          "type": "address"
        },
        {
          "internalType": "uint256",
          "name": "tokenId",
          "type": "uint256"
        }
      ],
      "name": "safeTransferFrom",
      "outputs": [],
      "stateMutability": "nonpayable",
      "type": "function"
    },
    {
      "inputs": [
        {
          "internalType": "address",
          "name": "from",
          "type": "address"
        },
        {
          "internalType": "address",
          "name": "to",
          "type": "address"
        },
        {
          "internalType": "uint256",
          "name": "tokenId",
          "type": "uint256"
        },
        {
          "internalType": "bytes",
          "name": "_data",
          "type": "bytes"
        }
      ],
      "name": "safeTransferFrom",
      "outputs": [],
      "stateMutability": "nonpayable",
      "type": "function"
    },
    {
      "inputs": [
        {
          "internalType": "address",
          "name": "operator",
          "type": "address"
        },
        {
          "internalType": "bool",
          "name": "approved",
          "type": "bool"
        }
      ],
      "name": "setApprovalForAll",
      "outputs": [],
      "stateMutability": "nonpayable",
      "type": "function"
    },
    {
      "inputs": [
        {
          "internalType": "bytes4",
          "name": "interfaceId",
          "type": "bytes4"
        }
      ],
      "name": "supportsInterface",
      "outputs": [
        {
          "internalType": "bool",
          "name": "",
          "type": "bool"
        }
      ],
      "stateMutability": "view",
      "type": "function"
    },
    {
      "inputs": [],
      "name": "symbol",
      "outputs": [
        {
          "internalType": "string",
          "name": "",
          "type": "string"
        }
      ],
      "stateMutability": "view",
      "type": "function"
    },
    {
      "inputs": [
        {
          "internalType": "uint256",
          "name": "tokenId",
          "type": "uint256"
        }
      ],
      "name": "tokenURI",
      "outputs": [
        {
          "internalType": "string",
          "name": "",
          "type": "string"
        }
      ],
      "stateMutability": "view",
      "type": "function"
    },
    {
      "inputs": [
        {
          "internalType": "address",
          "name": "from",
          "type": "address"
        },
        {
          "internalType": "address",
          "name": "to",
          "type": "address"
        },
        {
          "internalType": "uint256",
          "name": "tokenId",
          "type": "uint256"
        }
      ],
      "name": "transferFrom",
      "outputs": [],
      "stateMutability": "nonpayable",
      "type": "function"
    }
  ],
  "bytecode": "0x60806040523480156200001157600080fd5b506040518060400160405280600381526020017f6e667400000000000000000000000000000000000000000000000000000000008152506040518060400160405280600381526020017f6e667400000000000000000000000000000000000000000000000000000000008152508160009080519060200190620000969291906200023c565b508060019080519060200190620000af9291906200023c565b505050620000c26200010860201b60201c565b60089080519060200190620000d99291906200023c565b50620000ea620001a260201b60201c565b60099080519060200190620001019291906200023c565b5062000350565b60606000805462000119906200031b565b80601f016020809104026020016040519081016040528092919081815260200182805462000147906200031b565b8015620001985780601f106200016c5761010080835404028352916020019162000198565b820191906000526020600020905b8154815290600101906020018083116200017a57829003601f168201915b5050505050905090565b606060018054620001b3906200031b565b80601f0160208091040260200160405190810160405280929190818152602001828054620001e1906200031b565b8015620002325780601f10620002065761010080835404028352916020019162000232565b820191906000526020600020905b8154815290600101906020018083116200021457829003601f168201915b5050505050905090565b8280546200024a906200031b565b90600052602060002090601f0160209004810192826200026e5760008555620002ba565b82601f106200028957805160ff1916838001178555620002ba565b82800160010185558215620002ba579182015b82811115620002b95782518255916020019190600101906200029c565b5b509050620002c99190620002cd565b5090565b5b80821115620002e8576000816000905550600101620002ce565b5090565b7f4e487b7100000000000000000000000000000000000000000000000000000000600052602260045260246000fd5b600060028204905060018216806200033457607f821691505b6020821081036200034a5762000349620002ec565b5b50919050565b61330580620003606000396000f3fe608060405234801561001057600080fd5b50600436106101005760003560e01c80636352211e11610097578063b88d4fde11610066578063b88d4fde146102ad578063c87b56dd146102c9578063e5326ab1146102f9578063e985e9c51461031757610100565b80636352211e1461021357806370a082311461024357806395d89b4114610273578063a22cb4651461029157610100565b806320fcdcf0116100d357806320fcdcf01461019f57806323b872dd146101bd5780632f39352a146101d957806342842e0e146101f757610100565b806301ffc9a71461010557806306fdde0314610135578063081812fc14610153578063095ea7b314610183575b600080fd5b61011f600480360381019061011a9190611d37565b610347565b60405161012c9190611d7f565b60405180910390f35b61013d610429565b60405161014a9190611e33565b60405180910390f35b61016d60048036038101906101689190611e8b565b6104bb565b60405161017a9190611ef9565b60405180910390f35b61019d60048036038101906101989190611f40565b610540565b005b6101a7610657565b6040516101b49190611f8f565b60405180910390f35b6101d760048036038101906101d29190611faa565b61073f565b005b6101e161079f565b6040516101ee9190611e33565b60405180910390f35b610211600480360381019061020c9190611faa565b61082d565b005b61022d60048036038101906102289190611e8b565b61084d565b60405161023a9190611ef9565b60405180910390f35b61025d60048036038101906102589190611ffd565b6108fe565b60405161026a9190611f8f565b60405180910390f35b61027b6109b5565b6040516102889190611e33565b60405180910390f35b6102ab60048036038101906102a69190612056565b610a47565b005b6102c760048036038101906102c291906121cb565b610a5d565b005b6102e360048036038101906102de9190611e8b565b610abf565b6040516102f09190611e33565b60405180910390f35b610301610c10565b60405161030e9190611e33565b60405180910390f35b610331600480360381019061032c919061224e565b610c9e565b60405161033e9190611d7f565b60405180910390f35b60007f80ac58cd000000000000000000000000000000000000000000000000000000007bffffffffffffffffffffffffffffffffffffffffffffffffffffffff1916827bffffffffffffffffffffffffffffffffffffffffffffffffffffffff1916148061041257507f5b5e139f000000000000000000000000000000000000000000000000000000007bffffffffffffffffffffffffffffffffffffffffffffffffffffffff1916827bffffffffffffffffffffffffffffffffffffffffffffffffffffffff1916145b80610422575061042182610d32565b5b9050919050565b606060008054610438906122bd565b80601f0160208091040260200160405190810160405280929190818152602001828054610464906122bd565b80156104b15780601f10610486576101008083540402835291602001916104b1565b820191906000526020600020905b81548152906001019060200180831161049457829003601f168201915b5050505050905090565b60006104c682610d9c565b610505576040517f08c379a00000000000000000000000000000000000000000000000000000000081526004016104fc90612360565b60405180910390fd5b6004600083815260200190815260200160002060009054906101000a900473ffffffffffffffffffffffffffffffffffffffff169050919050565b600061054b8261084d565b90508073ffffffffffffffffffffffffffffffffffffffff168373ffffffffffffffffffffffffffffffffffffffff16036105bb576040517f08c379a00000000000000000000000000000000000000000000000000000000081526004016105b2906123f2565b60405180910390fd5b8073ffffffffffffffffffffffffffffffffffffffff166105da610e08565b73ffffffffffffffffffffffffffffffffffffffff161480610609575061060881610603610e08565b610c9e565b5b610648576040517f08c379a000000000000000000000000000000000000000000000000000000000815260040161063f90612484565b60405180910390fd5b6106528383610e10565b505050565b6000806106646007610ec9565b9050600060405180610160016040528061013781526020016131596101379139905060008161069284610ed7565b6040516020016106a392919061252c565b604051602081830303815290604052905060006106f06106c285610ed7565b6106cb84611037565b6040516020016106dc92919061268b565b604051602081830303815290604052611037565b9050600081604051602001610705919061271c565b604051602081830303815290604052905061072033866111ce565b61072a85826111ec565b6107346007611260565b849550505050505090565b61075061074a610e08565b82611276565b61078f576040517f08c379a0000000000000000000000000000000000000000000000000000000008152600401610786906127b0565b60405180910390fd5b61079a838383611354565b505050565b600980546107ac906122bd565b80601f01602080910402602001604051908101604052809291908181526020018280546107d8906122bd565b80156108255780601f106107fa57610100808354040283529160200191610825565b820191906000526020600020905b81548152906001019060200180831161080857829003601f168201915b505050505081565b61084883838360405180602001604052806000815250610a5d565b505050565b6000806002600084815260200190815260200160002060009054906101000a900473ffffffffffffffffffffffffffffffffffffffff169050600073ffffffffffffffffffffffffffffffffffffffff168173ffffffffffffffffffffffffffffffffffffffff16036108f5576040517f08c379a00000000000000000000000000000000000000000000000000000000081526004016108ec90612842565b60405180910390fd5b80915050919050565b60008073ffffffffffffffffffffffffffffffffffffffff168273ffffffffffffffffffffffffffffffffffffffff160361096e576040517f08c379a0000000000000000000000000000000000000000000000000000000008152600401610965906128d4565b60405180910390fd5b600360008373ffffffffffffffffffffffffffffffffffffffff1673ffffffffffffffffffffffffffffffffffffffff168152602001908152602001600020549050919050565b6060600180546109c4906122bd565b80601f01602080910402602001604051908101604052809291908181526020018280546109f0906122bd565b8015610a3d5780601f10610a1257610100808354040283529160200191610a3d565b820191906000526020600020905b815481529060010190602001808311610a2057829003601f168201915b5050505050905090565b610a59610a52610e08565b83836115ba565b5050565b610a6e610a68610e08565b83611276565b610aad576040517f08c379a0000000000000000000000000000000000000000000000000000000008152600401610aa4906127b0565b60405180910390fd5b610ab984848484611726565b50505050565b6060610aca82610d9c565b610b09576040517f08c379a0000000000000000000000000000000000000000000000000000000008152600401610b0090612966565b60405180910390fd5b6000600660008481526020019081526020016000208054610b29906122bd565b80601f0160208091040260200160405190810160405280929190818152602001828054610b55906122bd565b8015610ba25780601f10610b7757610100808354040283529160200191610ba2565b820191906000526020600020905b815481529060010190602001808311610b8557829003601f168201915b505050505090506000610bb3611782565b90506000815103610bc8578192505050610c0b565b600082511115610bfd578082604051602001610be5929190612986565b60405160208183030381529060405292505050610c0b565b610c0684611799565b925050505b919050565b60088054610c1d906122bd565b80601f0160208091040260200160405190810160405280929190818152602001828054610c49906122bd565b8015610c965780601f10610c6b57610100808354040283529160200191610c96565b820191906000526020600020905b815481529060010190602001808311610c7957829003601f168201915b505050505081565b6000600560008473ffffffffffffffffffffffffffffffffffffffff1673ffffffffffffffffffffffffffffffffffffffff16815260200190815260200160002060008373ffffffffffffffffffffffffffffffffffffffff1673ffffffffffffffffffffffffffffffffffffffff16815260200190815260200160002060009054906101000a900460ff16905092915050565b60007f01ffc9a7000000000000000000000000000000000000000000000000000000007bffffffffffffffffffffffffffffffffffffffffffffffffffffffff1916827bffffffffffffffffffffffffffffffffffffffffffffffffffffffff1916149050919050565b60008073ffffffffffffffffffffffffffffffffffffffff166002600084815260200190815260200160002060009054906101000a900473ffffffffffffffffffffffffffffffffffffffff1673ffffffffffffffffffffffffffffffffffffffff1614159050919050565b600033905090565b816004600083815260200190815260200160002060006101000a81548173ffffffffffffffffffffffffffffffffffffffff021916908373ffffffffffffffffffffffffffffffffffffffff160217905550808273ffffffffffffffffffffffffffffffffffffffff16610e838361084d565b73ffffffffffffffffffffffffffffffffffffffff167f8c5be1e5ebec7d5bd14f71427d1e84f3dd0314c0f7b2291e5b200ac8c7c3b92560405160405180910390a45050565b600081600001549050919050565b606060008203610f1e576040518060400160405280600181526020017f30000000000000000000000000000000000000000000000000000000000000008152509050611032565b600082905060005b60008214610f50578080610f39906129d9565b915050600a82610f499190612a50565b9150610f26565b60008167ffffffffffffffff811115610f6c57610f6b6120a0565b5b6040519080825280601f01601f191660200182016040528015610f9e5781602001600182028036833780820191505090505b5090505b6000851461102b57600182610fb79190612a81565b9150600a85610fc69190612ab5565b6030610fd29190612ae6565b60f81b818381518110610fe857610fe7612b3c565b5b60200101907effffffffffffffffffffffffffffffffffffffffffffffffffffffffffffff1916908160001a905350600a856110249190612a50565b9450610fa2565b8093505050505b919050565b60606000825190506000810361105f57604051806020016040528060008152509150506111c9565b600060036002836110709190612ae6565b61107a9190612a50565b60046110869190612b6b565b905060006020826110979190612ae6565b67ffffffffffffffff8111156110b0576110af6120a0565b5b6040519080825280601f01601f1916602001820160405280156110e25781602001600182028036833780820191505090505b5090506000604051806060016040528060408152602001613290604091399050600181016020830160005b868110156111865760038101905062ffffff818a015116603f8160121c168401518060081b905060ff603f83600c1c1686015116810190508060081b905060ff603f8360061c1686015116810190508060081b905060ff603f831686015116810190508060e01b9050808452600484019350505061110d565b5060038606600181146111a057600281146111b0576111bb565b613d3d60f01b60028303526111bb565b603d60f81b60018303525b508484525050819450505050505b919050565b6111e8828260405180602001604052806000815250611840565b5050565b6111f582610d9c565b611234576040517f08c379a000000000000000000000000000000000000000000000000000000000815260040161122b90612c37565b60405180910390fd5b8060066000848152602001908152602001600020908051906020019061125b929190611c28565b505050565b6001816000016000828254019250508190555050565b600061128182610d9c565b6112c0576040517f08c379a00000000000000000000000000000000000000000000000000000000081526004016112b790612cc9565b60405180910390fd5b60006112cb8361084d565b90508073ffffffffffffffffffffffffffffffffffffffff168473ffffffffffffffffffffffffffffffffffffffff16148061133a57508373ffffffffffffffffffffffffffffffffffffffff16611322846104bb565b73ffffffffffffffffffffffffffffffffffffffff16145b8061134b575061134a8185610c9e565b5b91505092915050565b8273ffffffffffffffffffffffffffffffffffffffff166113748261084d565b73ffffffffffffffffffffffffffffffffffffffff16146113ca576040517f08c379a00000000000000000000000000000000000000000000000000000000081526004016113c190612d5b565b60405180910390fd5b600073ffffffffffffffffffffffffffffffffffffffff168273ffffffffffffffffffffffffffffffffffffffff1603611439576040517f08c379a000000000000000000000000000000000000000000000000000000000815260040161143090612ded565b60405180910390fd5b61144483838361189b565b61144f600082610e10565b6001600360008573ffffffffffffffffffffffffffffffffffffffff1673ffffffffffffffffffffffffffffffffffffffff168152602001908152602001600020600082825461149f9190612a81565b925050819055506001600360008473ffffffffffffffffffffffffffffffffffffffff1673ffffffffffffffffffffffffffffffffffffffff16815260200190815260200160002060008282546114f69190612ae6565b92505081905550816002600083815260200190815260200160002060006101000a81548173ffffffffffffffffffffffffffffffffffffffff021916908373ffffffffffffffffffffffffffffffffffffffff160217905550808273ffffffffffffffffffffffffffffffffffffffff168473ffffffffffffffffffffffffffffffffffffffff167fddf252ad1be2c89b69c2b068fc378daa952ba7f163c4a11628f55a4df523b3ef60405160405180910390a46115b58383836118a0565b505050565b8173ffffffffffffffffffffffffffffffffffffffff168373ffffffffffffffffffffffffffffffffffffffff1603611628576040517f08c379a000000000000000000000000000000000000000000000000000000000815260040161161f90612e59565b60405180910390fd5b80600560008573ffffffffffffffffffffffffffffffffffffffff1673ffffffffffffffffffffffffffffffffffffffff16815260200190815260200160002060008473ffffffffffffffffffffffffffffffffffffffff1673ffffffffffffffffffffffffffffffffffffffff16815260200190815260200160002060006101000a81548160ff0219169083151502179055508173ffffffffffffffffffffffffffffffffffffffff168373ffffffffffffffffffffffffffffffffffffffff167f17307eab39ab6107e8899845ad3d59bd9653f200f220920489ca2b5937696c31836040516117199190611d7f565b60405180910390a3505050565b611731848484611354565b61173d848484846118a5565b61177c576040517f08c379a000000000000000000000000000000000000000000000000000000000815260040161177390612eeb565b60405180910390fd5b50505050565b606060405180602001604052806000815250905090565b60606117a482610d9c565b6117e3576040517f08c379a00000000000000000000000000000000000000000000000000000000081526004016117da90612f7d565b60405180910390fd5b60006117ed611782565b9050600081511161180d5760405180602001604052806000815250611838565b8061181784610ed7565b604051602001611828929190612986565b6040516020818303038152906040525b915050919050565b61184a8383611a2c565b61185760008484846118a5565b611896576040517f08c379a000000000000000000000000000000000000000000000000000000000815260040161188d90612eeb565b60405180910390fd5b505050565b505050565b505050565b60006118c68473ffffffffffffffffffffffffffffffffffffffff16611c05565b15611a1f578373ffffffffffffffffffffffffffffffffffffffff1663150b7a026118ef610e08565b8786866040518563ffffffff1660e01b81526004016119119493929190612ff2565b6020604051808303816000875af192505050801561194d57506040513d601f19601f8201168201806040525081019061194a9190613053565b60015b6119cf573d806000811461197d576040519150601f19603f3d011682016040523d82523d6000602084013e611982565b606091505b5060008151036119c7576040517f08c379a00000000000000000000000000000000000000000000000000000000081526004016119be90612eeb565b60405180910390fd5b805181602001fd5b63150b7a0260e01b7bffffffffffffffffffffffffffffffffffffffffffffffffffffffff1916817bffffffffffffffffffffffffffffffffffffffffffffffffffffffff191614915050611a24565b600190505b949350505050565b600073ffffffffffffffffffffffffffffffffffffffff168273ffffffffffffffffffffffffffffffffffffffff1603611a9b576040517f08c379a0000000000000000000000000000000000000000000000000000000008152600401611a92906130cc565b60405180910390fd5b611aa481610d9c565b15611ae4576040517f08c379a0000000000000000000000000000000000000000000000000000000008152600401611adb90613138565b60405180910390fd5b611af06000838361189b565b6001600360008473ffffffffffffffffffffffffffffffffffffffff1673ffffffffffffffffffffffffffffffffffffffff1681526020019081526020016000206000828254611b409190612ae6565b92505081905550816002600083815260200190815260200160002060006101000a81548173ffffffffffffffffffffffffffffffffffffffff021916908373ffffffffffffffffffffffffffffffffffffffff160217905550808273ffffffffffffffffffffffffffffffffffffffff16600073ffffffffffffffffffffffffffffffffffffffff167fddf252ad1be2c89b69c2b068fc378daa952ba7f163c4a11628f55a4df523b3ef60405160405180910390a4611c01600083836118a0565b5050565b6000808273ffffffffffffffffffffffffffffffffffffffff163b119050919050565b828054611c34906122bd565b90600052602060002090601f016020900481019282611c565760008555611c9d565b82601f10611c6f57805160ff1916838001178555611c9d565b82800160010185558215611c9d579182015b82811115611c9c578251825591602001919060010190611c81565b5b509050611caa9190611cae565b5090565b5b80821115611cc7576000816000905550600101611caf565b5090565b6000604051905090565b600080fd5b600080fd5b60007fffffffff0000000000000000000000000000000000000000000000000000000082169050919050565b611d1481611cdf565b8114611d1f57600080fd5b50565b600081359050611d3181611d0b565b92915050565b600060208284031215611d4d57611d4c611cd5565b5b6000611d5b84828501611d22565b91505092915050565b60008115159050919050565b611d7981611d64565b82525050565b6000602082019050611d946000830184611d70565b92915050565b600081519050919050565b600082825260208201905092915050565b60005b83811015611dd4578082015181840152602081019050611db9565b83811115611de3576000848401525b50505050565b6000601f19601f8301169050919050565b6000611e0582611d9a565b611e0f8185611da5565b9350611e1f818560208601611db6565b611e2881611de9565b840191505092915050565b60006020820190508181036000830152611e4d8184611dfa565b905092915050565b6000819050919050565b611e6881611e55565b8114611e7357600080fd5b50565b600081359050611e8581611e5f565b92915050565b600060208284031215611ea157611ea0611cd5565b5b6000611eaf84828501611e76565b91505092915050565b600073ffffffffffffffffffffffffffffffffffffffff82169050919050565b6000611ee382611eb8565b9050919050565b611ef381611ed8565b82525050565b6000602082019050611f0e6000830184611eea565b92915050565b611f1d81611ed8565b8114611f2857600080fd5b50565b600081359050611f3a81611f14565b92915050565b60008060408385031215611f5757611f56611cd5565b5b6000611f6585828601611f2b565b9250506020611f7685828601611e76565b9150509250929050565b611f8981611e55565b82525050565b6000602082019050611fa46000830184611f80565b92915050565b600080600060608486031215611fc357611fc2611cd5565b5b6000611fd186828701611f2b565b9350506020611fe286828701611f2b565b9250506040611ff386828701611e76565b9150509250925092565b60006020828403121561201357612012611cd5565b5b600061202184828501611f2b565b91505092915050565b61203381611d64565b811461203e57600080fd5b50565b6000813590506120508161202a565b92915050565b6000806040838503121561206d5761206c611cd5565b5b600061207b85828601611f2b565b925050602061208c85828601612041565b9150509250929050565b600080fd5b600080fd5b7f4e487b7100000000000000000000000000000000000000000000000000000000600052604160045260246000fd5b6120d882611de9565b810181811067ffffffffffffffff821117156120f7576120f66120a0565b5b80604052505050565b600061210a611ccb565b905061211682826120cf565b919050565b600067ffffffffffffffff821115612136576121356120a0565b5b61213f82611de9565b9050602081019050919050565b82818337600083830152505050565b600061216e6121698461211b565b612100565b90508281526020810184848401111561218a5761218961209b565b5b61219584828561214c565b509392505050565b600082601f8301126121b2576121b1612096565b5b81356121c284826020860161215b565b91505092915050565b600080600080608085870312156121e5576121e4611cd5565b5b60006121f387828801611f2b565b945050602061220487828801611f2b565b935050604061221587828801611e76565b925050606085013567ffffffffffffffff81111561223657612235611cda565b5b6122428782880161219d565b91505092959194509250565b6000806040838503121561226557612264611cd5565b5b600061227385828601611f2b565b925050602061228485828601611f2b565b9150509250929050565b7f4e487b7100000000000000000000000000000000000000000000000000000000600052602260045260246000fd5b600060028204905060018216806122d557607f821691505b6020821081036122e8576122e761228e565b5b50919050565b7f4552433732313a20617070726f76656420717565727920666f72206e6f6e657860008201527f697374656e7420746f6b656e0000000000000000000000000000000000000000602082015250565b600061234a602c83611da5565b9150612355826122ee565b604082019050919050565b600060208201905081810360008301526123798161233d565b9050919050565b7f4552433732313a20617070726f76616c20746f2063757272656e74206f776e6560008201527f7200000000000000000000000000000000000000000000000000000000000000602082015250565b60006123dc602183611da5565b91506123e782612380565b604082019050919050565b6000602082019050818103600083015261240b816123cf565b9050919050565b7f4552433732313a20617070726f76652063616c6c6572206973206e6f74206f7760008201527f6e6572206e6f7220617070726f76656420666f7220616c6c0000000000000000602082015250565b600061246e603883611da5565b915061247982612412565b604082019050919050565b6000602082019050818103600083015261249d81612461565b9050919050565b600081905092915050565b60006124ba82611d9a565b6124c481856124a4565b93506124d4818560208601611db6565b80840191505092915050565b7f3c2f746578743e3c2f7376673e00000000000000000000000000000000000000600082015250565b6000612516600d836124a4565b9150612521826124e0565b600d82019050919050565b600061253882856124af565b915061254482846124af565b915061254f82612509565b91508190509392505050565b7f7b226e616d65223a202200000000000000000000000000000000000000000000600082015250565b6000612591600a836124a4565b915061259c8261255b565b600a82019050919050565b7f222c20226465736372697074696f6e223a20224120686967686c79206163636c60008201527f61696d656420636f6c6c656374696f6e2057617272696f7273222c2022696d6160208201527f6765223a2022646174613a696d6167652f7376672b786d6c3b6261736536342c604082015250565b60006126296060836124a4565b9150612634826125a7565b606082019050919050565b7f227d000000000000000000000000000000000000000000000000000000000000600082015250565b60006126756002836124a4565b91506126808261263f565b600282019050919050565b600061269682612584565b91506126a282856124af565b91506126ad8261261c565b91506126b982846124af565b91506126c482612668565b91508190509392505050565b7f646174613a6170706c69636174696f6e2f6a736f6e3b6261736536342c000000600082015250565b6000612706601d836124a4565b9150612711826126d0565b601d82019050919050565b6000612727826126f9565b915061273382846124af565b915081905092915050565b7f4552433732313a207472616e736665722063616c6c6572206973206e6f74206f60008201527f776e6572206e6f7220617070726f766564000000000000000000000000000000602082015250565b600061279a603183611da5565b91506127a58261273e565b604082019050919050565b600060208201905081810360008301526127c98161278d565b9050919050565b7f4552433732313a206f776e657220717565727920666f72206e6f6e657869737460008201527f656e7420746f6b656e0000000000000000000000000000000000000000000000602082015250565b600061282c602983611da5565b9150612837826127d0565b604082019050919050565b6000602082019050818103600083015261285b8161281f565b9050919050565b7f4552433732313a2062616c616e636520717565727920666f7220746865207a6560008201527f726f206164647265737300000000000000000000000000000000000000000000602082015250565b60006128be602a83611da5565b91506128c982612862565b604082019050919050565b600060208201905081810360008301526128ed816128b1565b9050919050565b7f45524337323155524953746f726167653a2055524920717565727920666f722060008201527f6e6f6e6578697374656e7420746f6b656e000000000000000000000000000000602082015250565b6000612950603183611da5565b915061295b826128f4565b604082019050919050565b6000602082019050818103600083015261297f81612943565b9050919050565b600061299282856124af565b915061299e82846124af565b91508190509392505050565b7f4e487b7100000000000000000000000000000000000000000000000000000000600052601160045260246000fd5b60006129e482611e55565b91507fffffffffffffffffffffffffffffffffffffffffffffffffffffffffffffffff8203612a1657612a156129aa565b5b600182019050919050565b7f4e487b7100000000000000000000000000000000000000000000000000000000600052601260045260246000fd5b6000612a5b82611e55565b9150612a6683611e55565b925082612a7657612a75612a21565b5b828204905092915050565b6000612a8c82611e55565b9150612a9783611e55565b925082821015612aaa57612aa96129aa565b5b828203905092915050565b6000612ac082611e55565b9150612acb83611e55565b925082612adb57612ada612a21565b5b828206905092915050565b6000612af182611e55565b9150612afc83611e55565b9250827fffffffffffffffffffffffffffffffffffffffffffffffffffffffffffffffff03821115612b3157612b306129aa565b5b828201905092915050565b7f4e487b7100000000000000000000000000000000000000000000000000000000600052603260045260246000fd5b6000612b7682611e55565b9150612b8183611e55565b9250817fffffffffffffffffffffffffffffffffffffffffffffffffffffffffffffffff0483118215151615612bba57612bb96129aa565b5b828202905092915050565b7f45524337323155524953746f726167653a2055524920736574206f66206e6f6e60008201527f6578697374656e7420746f6b656e000000000000000000000000000000000000602082015250565b6000612c21602e83611da5565b9150612c2c82612bc5565b604082019050919050565b60006020820190508181036000830152612c5081612c14565b9050919050565b7f4552433732313a206f70657261746f7220717565727920666f72206e6f6e657860008201527f697374656e7420746f6b656e0000000000000000000000000000000000000000602082015250565b6000612cb3602c83611da5565b9150612cbe82612c57565b604082019050919050565b60006020820190508181036000830152612ce281612ca6565b9050919050565b7f4552433732313a207472616e736665722066726f6d20696e636f72726563742060008201527f6f776e6572000000000000000000000000000000000000000000000000000000602082015250565b6000612d45602583611da5565b9150612d5082612ce9565b604082019050919050565b60006020820190508181036000830152612d7481612d38565b9050919050565b7f4552433732313a207472616e7366657220746f20746865207a65726f2061646460008201527f7265737300000000000000000000000000000000000000000000000000000000602082015250565b6000612dd7602483611da5565b9150612de282612d7b565b604082019050919050565b60006020820190508181036000830152612e0681612dca565b9050919050565b7f4552433732313a20617070726f766520746f2063616c6c657200000000000000600082015250565b6000612e43601983611da5565b9150612e4e82612e0d565b602082019050919050565b60006020820190508181036000830152612e7281612e36565b9050919050565b7f4552433732313a207472616e7366657220746f206e6f6e20455243373231526560008201527f63656976657220696d706c656d656e7465720000000000000000000000000000602082015250565b6000612ed5603283611da5565b9150612ee082612e79565b604082019050919050565b60006020820190508181036000830152612f0481612ec8565b9050919050565b7f4552433732314d657461646174613a2055524920717565727920666f72206e6f60008201527f6e6578697374656e7420746f6b656e0000000000000000000000000000000000602082015250565b6000612f67602f83611da5565b9150612f7282612f0b565b604082019050919050565b60006020820190508181036000830152612f9681612f5a565b9050919050565b600081519050919050565b600082825260208201905092915050565b6000612fc482612f9d565b612fce8185612fa8565b9350612fde818560208601611db6565b612fe781611de9565b840191505092915050565b60006080820190506130076000830187611eea565b6130146020830186611eea565b6130216040830185611f80565b81810360608301526130338184612fb9565b905095945050505050565b60008151905061304d81611d0b565b92915050565b60006020828403121561306957613068611cd5565b5b60006130778482850161303e565b91505092915050565b7f4552433732313a206d696e7420746f20746865207a65726f2061646472657373600082015250565b60006130b6602083611da5565b91506130c182613080565b602082019050919050565b600060208201905081810360008301526130e5816130a9565b9050919050565b7f4552433732313a20746f6b656e20616c7265616479206d696e74656400000000600082015250565b6000613122601c83611da5565b915061312d826130ec565b602082019050919050565b6000602082019050818103600083015261315181613115565b905091905056fe3c7376672076696577426f783d2730203020333530203335302720786d6c6e733d27687474703a2f2f7777772e77332e6f72672f323030302f73766727203e3c7374796c653e2e62617365207b2066696c6c3a20626c61636b3b20666f6e742d66616d696c793a2073657269663b20666f6e742d73697a653a20323470783b207d3c2f7374796c653e3c636972636c652063783d27313735272063793d273137352720723d27313735272077696474683d273130302527206865696768743d2731303025272066696c6c3d276f72616e6765273e3c2f636972636c653e3c7465787420783d273530252720793d273530252720636c6173733d27626173652720646f6d696e616e742d626173656c696e653d276d6964646c652720746578742d616e63686f723d276d6964646c65273e546f6b656e20234142434445464748494a4b4c4d4e4f505152535455565758595a6162636465666768696a6b6c6d6e6f707172737475767778797a303132333435363738392b2fa26469706673582212209122caeb692f29f2b1cc22560d1e171503a93a5d7d5954ffeff3de18fb428bca64736f6c634300080d0033",
  "linkReferences": {},
  "deployedLinkReferences": {}
}